:020000020000FC
:0200000032C00C
:1000080000C04F934FB7539551705130A1F0709382
:10001800600080936100909362007091630080910A
:10002800640090916500542E4F914FBE3F902F90E1
:100038000F921F92189570936300809364009093B9
:100048006500709160008091610090916200442E7B
:100058004F915FBE1F900F902F923F921895789402
:1000680009E00EBD00E00BBD04E60ABD00E409BFCF
:1000780000270CBD0DBD552701E5002E00E0002E20
:1000880004E6202E00E0302E06E618E118BB01BB7E
:1000980017BB0FE302BB0027112788B398B38870FA
:1000A80070E1970F9071890F88BB74E184E395E044
:1000B8000000019709F0FCCF7A957813F7CFEDCFC0
:1000C80088B398B3807178E0970F9870890F88BBD0
:1000D8007FEF84E395E00000019709F0FCCF7A9563
:0800E8007813F7CFEDCF189556
:00000001FF
